:020000040000fa
:080000000001040000000000f3
:020000040000fa
:100008001217000012170000121700001217000044
:100018001217000012170000121700001217000034
:100028001217000012170000121700001217000024
:100038001217000012170000121700001217000014
:10004800121700001217000012170000ba1400005f
:1000580012170000121700001217000012170000f4
:1000680012170000121700001217000012170000e4
:1000780012170000121700001217000012170000d4
:10008800121700001217000012170000760b00006c
:1000980012170000121700001217000012170000b4
:1000a80012170000121700001217000012170000a4
:1000b8001217000012170000a80b0000121700000a
:1000c8001217000012170000121700001217000084
:1000d8001217000012170000121700001217000074
:1000e8001217000012170000121700001217000064
:0800f8001217000012170000ae
:020000040000fa
:100108001217000012170000121700001217000043
:100118001217000012170000121700001217000033
:100128001217000012170000121700001217000023
:100138001217000012170000121700001217000013
:10014800121700001217000012170000ba1400005e
:1001580012170000121700001217000012170000f3
:1001680012170000121700001217000012170000e3
:1001780012170000121700001217000012170000d3
:10018800121700001217000012170000760b00006b
:1001980012170000121700001217000012170000b3
:1001a80012170000121700001217000012170000a3
:1001b8001217000012170000a80b00001217000009
:1001c8001217000012170000121700001217000083
:1001d8001217000012170000121700001217000073
:1001e8001217000012170000121700001217000063
:0801f8001217000012170000ad
:020000040000fa
:10020000cfbf20000e7f22000e01880000000000fa
:10021000000020000000e000020032000001200089
:10022000200288000c000700a0e622000100200048
:1002300011000700000020000000e0000200320072
:100240000000020000000000320e0200000000006a
:100250000040da000000fe004440a9000004200035
:100260000000e0000300320000002000a001880030
:100270004440a8000000060091018800800078003a
:100280000000eb0015003700e280400032a0b4000f
:100290009101ba00e280400032a0b4009102ba009d
:1002a000e280400032a0b4000002eb00472bde00e9
:1002b000f507b200602ce10004003a000059eb00a1
:1002c0008301e900fdff3e00040037006128e100e2
:1002d000010032000082eb00040007001101ba00a7
:1002e0000200e000e8ff3a00000006003159ba00c1
:1002f0008301e9000c0032002159ba008301e900b2
:10030000080032000400e00003003a00e2804000f0
:1003100032a0b400f5ff370011d9ba008301e9001b
:10032000faff3a008100e800e180400032a0b4000a
:10033000000006006022b800060220000000d00085
:100340008180d2000482d2008582d2000000a00009
:100350000202520083825a0003003100020242006e
:1003600083824a000000a1000603e900f3ff3a007f
:040370000000060083
:020000040000fa
:100374000000000000800000000000000080000079
:100384000000000000800000000000000080000069
:100394000000000000800000000000000080000059
:1003a4000000000000800000000000000080000049
:1003b4000000000000000000000000000000000039
:1003c4000000000000000000000000000000000029
:1003d4000000000000000000000000000000000019
:1003e4000000000000000000000000000000000009
:020000040000fa
:1003f4001200fa002007980032079800430798007b
:10040400510798006407980075079800060f980034
:1004140064012000644588000e0a9000e70f520032
:100424000200360074002000040f98005e02900061
:10043400b45088006e029000fe029000c450880000
:10044400d55088003eba9700ceba9700e450880091
:10045400f55088001eba9700aeba97000451880080
:1004640015518800c4508000d55080000400be009f
:10047400ca150700e4508000f55080000400be0057
:10048400c615070004518000155180000400be0009
:10049400c2150700445f80000402e800445f88003e
:1004a400848b20008002eb00050a7800848b2000f6
:1004b4008002eb0015029800848b20008002eb0080
:1004c40025029800848b20008002eb0035029800fe
:1004d4000002eb0064428800445f800044458800c9
:1004e400545f800034458800008c2000721507009a
:1004f40080962000701507003e029000ce02900006
:10050400048fbe001e02be00482bdd004822de0020
:1005140004027300c82ade00048fbe001e02be005f
:10052400a2002000030020000400be0080ff07009a
:100534000002be00048fbe00f4ff2f00050020005f
:100544001e03be00840f5300858f5b00030036003a
:10055400f4ff2f0005002000048fbe0054fb25008b
:10056400f40888001e027800d40888000002eb001a
:10057400a408880086a0a9008ea0a9001fe1a800f5
:100584003e029000ce029000048fbe001e02be0008
:10059400482bdd004822de0004027300c82ade0076
:1005a400048fbe001e02be004e2bdd004222de0080
:1005b40004027300c22ade00048fbe00f4ff2f0081
:1005c400050020001e03be00840f5300858f5b00ce
:1005d40003003600f4ff2f0005002000048fbe0046
:1005e400d4fb2500040988001e027800e408880072
:1005f40086c0a9008ec0a90021e1a800c4508000d3
:10060400d55080000400be00641507002e0290003f
:10061400e20f520071003200a439200024518800f6
:100624006439200034518800e438200044518800a3
:10063400e437200054518800e436200064518800d7
:10064400e435200074518800e4342000845188008b
:100654008f60a9008760a9000e0a90000442780008
:10066400674262000482fb00670262004c22dd00e4
:1006740006058000f5ff280085026300050272006c
:10068400040588000002eb00b41c88009803a8004d
:100694009823a8009843a80098a3a8000440200029
:1006a400841c880000000000851c8000040e2000cb
:1006b4008482620004082000848f5200faff3a000a
:1006c4003e039000ce03900004842700d517200039
:1006d400840f5300858f5b0003003a004400200020
:1006e400941c8800130037003e039000ce03900052
:1006f40004d0220015132000840f5300858f5b0063
:1007040003003a0034002000941c880009003700dc
:100714003e039000ce039000046829008509200060
:10072400840f5300858f5b0002003a001400200000
:10073400941c8800a4392000a41c880004f0210023
:1007440084198800c4ff2100c41988000002eb004a
:10075400041888000410200044188800b450800055
:10076400c222dd0004c02000050272008418880043
:1007740014002000741b880024002000f41a880050
:1007840034002000741a8800040c2000241b880004
:10079400040c2000a41a8800040c2000241a8800e9
:1007a4000002eb00741c88000002eb00f41b8800bc
:1007b4000002eb00841c880000000000851c8000ff
:1007c400040e200004826200e00f5200fbff3a0096
:1007d4008f60a80090c0a90070003700a4452000d5
:1007e400245188006445200034518800e4442000ea
:1007f40044518800e443200054518800e44220001e
:1008040064518800e441200074518800e4402000d1
:100814008451880090c0a90088c0a9000e0a9000e5
:1008240004427800674262000482fb0067026200af
:100834004822dd0036058000f58f2f008502630015
:1008440005027200340588000002eb00b42288001f
:100854005804a8005824a8005844a80058a4a80084
:1008640004402000842288000000000085228000cb
:10087400040e20008482620004082000848f520049
:10088400faff3a003e039000ce0390000484270050
:10089400d5172000840f5300858f5b0003003a00b6
:1008a4004400200094228800130037003e03900087
:1008b400ce03900004d0220015132000840f5300af
:1008c400858f5b0003003a003400200094228800e6
:1008d400090037003e039000ce039000046829000d
:1008e40085092000840f5300858f5b0002003a00c5
:1008f4001400200094228800a4392000a422880037
:1009040004f02100841f8800c4ff2100c41f880054
:100914000002eb00041e880004102000441e88001e
:10092400b4508000c222dd0004c020000502720021
:10093400841e8800140020007421880024002000f4
:10094400f42088003400200074208800040c200067
:1009540024218800040c2000a4208800040c20001a
:10096400242088000002eb00742288000002eb00bf
:10097400f42188000002eb008422880000000000bb
:1009840085228000040e200004826200e00f5200e1
:10099400fbff3a0090c0a8008f60a90094100700e4
:1009a40000027800e00f520007003a009d10070093
:1009b400c1e42f00001820003709070011032000ac
:1009c40010182000340907000080fa000000060017
:1009d4000c00fa00008fbe0022079800330798002d
:1009e40044079800550798001e027800d4418800f7
:1009f4001e02be00402ade0005002000048fbe0057
:100a04001e027800c44188002e029000e441880050
:100a140010182000a509070000027800f44188009e
:100a24003e029000144288004e0290002442880046
:100a34005e02900034428800001820009b090700e1
:100a440000027800044288000080fa0000000600da
:100a54000000fa0052000700f500070079020700c1
:100a640088020700848b2000940278000400280088
:100a740004826200e00f520001003200b502070058
:100a8400043a800054458800245180009402780080
:100a940004f02f00848262007644800004f02f006a
:100aa40004026300848f52000b00360075448000fa
:100ab400f40f2000048262007444880075448000ae
:100ac400245180001403780004f02f000402630012
:100ad4000482420074448800245180009402780007
:100ae400f40f20008482620076448000f40f20001a
:100af40004026300848f52000b00360075448000aa
:100b040004f02f000482620074448800754480005d
:100b14002451800014037800f40f200004026300c1
:100b240004824200744488000080fa000000060039
:100b34001000fa00500798006107980072079800a7
:100b4400b45080004222dd00040f78006e02900051
:100b5400140798005e029000e00f52000300320078
:100b64000082eb0024079800020037000002eb002b
:100b7400240798007e029000340798008451800076
:100b8400840078000e007800c113070064448000dc
:100b94000402e800644488000080fa0000000600b3
:100ba4000a00fa00050037008e007800008c20004f
:100bb400881307000e0078000b000700008c20004b
:100bc4003613070000027800e00f5200f6ff3a00e7
:100bd400744b800004458800344680001445880026
:100be4000080fa00000006000400fa0010079800d4
:100bf4001e029000c4029000050f780004002f002c
:100c04009e026200b45080004c22dd00848f5200aa
:100c140004003200d44480000402e800d444880074
:100c240025003700f4ff20001e0f6200f40f20009f
:100c34009e027800848f520003003e001e00900044
:100c44001f0007001c003700f41f20009e027800dc
:100c5400848f520003003e001e0090002f00070006
:100c640015003700f43f20009e027800848f520064
:100c740003003e001e009000540807000e003700d9
:100c8400f48f20009e027800848f52000700360003
:100c9400f49f20009e027800848f520003003e00df
:100ca4001e0090003100070003003700d444800088
:100cb4000402e800d44488000080fa000000060022
:100cc4000400fa00100798001e029000c40290006d
:100cd400050f7800f4ff20001e0f62001e0278004a
:100ce400e10f520003003200e30f52000300320010
:100cf400040037000000fe0006003700c90f07009b
:100d040004003700d44480000402e800d44488007e
:100d1400000000000080fa00000006000400fa0051
:100d2400100798001e029000c4029000050f78007e
:100d3400f4ff20001e0f62001e02900014029000b7
:100d4400840078001e007800530807001e029000fb
:100d5400a40290001e02e8008500780004007800d8
:100d64004d0807000080fa00000006000e00fa009b
:100d7400600798006e029000c4029000050f78008e
:100d8400f4ff20001e0f620004802f001e0f42009b
:100d9400b4508000c222dd0004002100050272006c
:100da400140798006e029000c402900004802f0083
:100db40004824200540798000002eb0044079800a4
:100dc4001e02e80004007800b8080700000278005a
:100dd400340798001e007800b40807000002780069
:100de400240798000e82e800840078008096200092
:100df400e012070064518000140278006802620067
:100e0400e00f520008003a007504800004802000be
:100e140004826200e00f5200020032008760a800e2
:100e24000100370088c0a8000080fa000000060016
:100e34000000fa00350480000402200004826200ed
:100e4400e00f52001201320086a0a9000440800085
:100e540061026200e00f520005003200045180007c
:100e6400155180000400be00291307000400370058
:100e740004518000155180000400be0013130700c4
:100e8400845080000402e80084508800845080006c
:100e9400e90f5200180036000002eb00845088006d
:100ea400945080000402e80094508800945080001c
:100eb4006302620094508800e4508000f550800082
:100ec4000400be004713070000027800e00f520040
:100ed40005003200e4508000f55080000400be009c
:100ee4000b13070004003700e4508000f550800025
:100ef4000400be00f5120700e700070084508000dc
:100f0400050020009600200007002000860f5200f4
:100f1400878f5a00de003e0004600100090037009c
:100f2400120037001b003700240037002d00370063
:100f3400360037003f003700580037007100370093
:100f4400a100370044408000574080006640800084
:100f540075408000870178000601780085007800dc
:100f640000042000fd000700c90037008440800011
:100f740097408000a6408000b5408000870178003b
:100f8400060178008500780000052000f3000700c2
:100f9400bf003700c4408000d7408000e640800096
:100fa400f54080008701780006017800850078000c
:100fb40000062000e9000700b50037000441800066
:100fc4001741800026418000354180008701780068
:100fd400060178008500780000072000df00070084
:100fe400ab003700444180005741800066418000d7
:100ff400754180008701780006017800850078003b
:1010040000082000d5000700a100370084418000bb
:1010140097418000a6418000b54180008701780097
:10102400060178008500780000092000cb00070045
:101034009700370094508000e00f52000300320004
:1010440094508000e20f52000a003a00744380007a
:101054006743800056438000454380008701780041
:10106400060178008500780000102000bb0007000e
:1010740087003700b4438000a74380009643800074
:101084008543800087017800060178008500780098
:1010940000112000b10007007d003700945080004b
:1010a400e00f52000300320094508000e20f52001f
:1010b4000a003a00f4438000e7438000d6438000ee
:1010c400c543800087017800060178008500780018
:1010d40000122000a10007006d0037003444800096
:1010e400274480001644800005448000870178006e
:1010f400060178008500780000132000970007009f
:101104006300370094508000e00f52000a003a0058
:101114007444800067448000564480004544800045
:1011240087017800060178008500780000202000ff
:101134008a0007005600370094508000e10f5200e7
:101144000a003a00b4448000a7448000964480001a
:1011540085448000870178000601780085007800c6
:10116400002120007d0007004900370094508000d2
:10117400e20f52000a003a00f4448000e744800081
:10118400d6448000c54480008701780006017800b9
:101194008500780000222000700007003c00370022
:1011a40034458000274580001645800005458000b1
:1011b400870178000601780085007800002320006c
:1011c400660007003200370094508000e00f5200a0
:1011d4000a003a00f4418000e7418000d6418000d3
:1011e400c5418000870178000601780085007800f9
:1011f400000e20005900070025003700945080009d
:10120400e10f52000a003a00344280002742800075
:1012140016428000054280008701780006017800ac
:1012240085007800000f20004c00070018003700ec
:1012340094508000e20f52000a003a006745800093
:101244005645800045458000040525008701780047
:101254000601780085007800002820003f00070080
:101264000b003700648b200014027800a74580002f
:101274009645800085458000870178000601780046
:1012840085007800002920003400070000000000d9
:101294000080fa00000006000a00fa00b450800042
:1012a400c222dd000404210005027200040f78004c
:1012b4000480200014027800140798002480200081
:1012c4001402780024079800448020001402780057
:1012d40034079800648020001402780044079800c2
:1012e40074518000840078000e007800e811070033
:1012f400544480000402e800544488000108a90012
:101304000128a9000148a9000168a9000188a900d1
:1013140001a8a90001c8a90001e8a9000080fa00f9
:10132400000006000a00fa00000f78001107980078
:101334002207980033079800440798004e02900053
:10134400be0190002e0190009e0090001e007800c7
:10135400020007000080fa00000006001400fa00f2
:10136400500798006107980072079800030f9800cf
:10137400140f9800b4508000de0290000502720041
:1013840054079800de029000044020000502720019
:10139400540798005e0290004222dd005407980032
:1013a4005e029000040f78009e02780004f02f0083
:1013b40004826200040f78001e0278004322dd00dc
:1013c400040f78009e0278005e039000f40f200062
:1013d4000402630005027200040f78001e0a9000e4
:1013e400140798000e0a9000240798007e029000cb
:1013f400340798006e029000440798008e0078002d
:10140400809620005b11070064518000140278006c
:1014140068026200e00f520008003a007504800080
:101424000480200004826200e00f520002003200b7
:101434008760a8000100370088c0a8000080fa0077
:10144400000006000000fa003504800004042000b7
:1014540004826200e00f52000800320086c0a90036
:10146400344580000402e800344588003445800097
:10147400545f880014002000644288000080fa0051
:10148400000006000000fa00a4508000e00f5200a3
:1014940005003a000440800061026200e00f52003f
:1014a400010032007cff07000440800061426200ba
:1014b4000482fb00a45088000080fa0000000600ab
:1014c4000200fa00000f7800848b20009e0278004e
:1014d40095029000050a78001e027800a40290008c
:1014e400848b2000150298001e027800b40290003c
:1014f400848b2000250298001e027800c40290000c
:10150400848b200035029800848b2000140278001c
:1015140094518800848b200014029000a451880008
:10152400848b200024029000b4518800848b200016
:1015340034029000c45188000060fe000002eb00f9
:10154400644288000002eb00c40888000080fa00ae
:10155400000006000000fa000002eb00444388008b
:101564000002eb00544388000002eb00644388004f
:101574000002eb00744388000002eb0084438800ff
:101584000002eb00944388000002eb00a4438800af
:101594000002eb00b44388000002eb00c44388005f
:1015a4000002eb00d44388000002eb00e44388000f
:1015b4000002eb00f44388000002eb0004448800be
:1015c4000002eb00144488000002eb00244488006d
:1015d4000002eb00344488000002eb00444488001d
:1015e4000002eb00544488000002eb0064448800cd
:1015f4000002eb00744488000002eb00844488007d
:101604000002eb00944488000002eb00a44488002c
:101614000002eb00b44488000002eb00c4448800dc
:101624000002eb00d44488000002eb00e44488008c
:101634000002eb00f44488000002eb00044588003b
:101644000002eb00144588000002eb0024458800ea
:101654000002eb00344588000002eb00444588009a
:101664000002eb00544588006401200064458800b2
:101674000002eb00744588000002eb0084458800fa
:101684000002eb00944588000002eb00a4458800aa
:101694000002eb00744b88000002eb003446880023
:1016a4000002eb00445f88000002eb00545f8800f6
:1016b40041e7a90041c7a90040e7a9004087a90064
:1016c4004067a9004047a9004027a9004007a90096
:1016d40040c7a900345180008002eb00050a78005d
:1016e4000080fa00000006003600f800809fbe006b
:1016f400829fbe00849fbe00869fbe00889fbe005e
:101704004400f8004200f8000000fa008760a900d5
:1017140028028000190280002500070019028800b1
:10172400280288000080fa004200f9004400f90011
:101734004f04be004f03be004f02be004f01be0067
:101744004f00be003600f900004006003600f800e5
:10175400809fbe00829fbe00849fbe00869fbe0005
:10176400889fbe004400f8004200f8000000fa0020
:1017740088c0a90028028000190280000c0007001c
:1017840019028800280288000080fa004200f9004b
:101794004400f9004f04be004f03be004f02be00d8
:1017a4004f01be004f00be003600f90000400600a5
:1017b4000a00fa00b5448000345180001402780015
:1017c40005027200b44488004451800094027800f9
:1017d4000408200004826200e00f5200220032005c
:1017e400445180001402780061026200e00f52004c
:1017f4000e003a00844480000402e8008444880017
:1018040044518000840078000e00780045100700e1
:101814001e029000544288002e0290004442880028
:101824003e0290007442880009003700944480000e
:101834000402e80094448800445180008400780045
:101844000e007800371007000e0078001cff070018
:10185400345180003551800015037800e5ff2f00d6
:1018640085026300050a78005451800094027800d0
:101874000408200004826200e00f52000d003200d0
:10188400a44480000402e800a44488005451800069
:1018940084007800008c200005100700345180007b
:1018a4003551800015037800d5ff2f0085026300b1
:1018b400050a78006451800014027800680262000e
:1018c400e00f520012003a0080962000f30f070048
:1018d40000027800e00f52000d00320064518000d5
:1018e4008400780080962000531007003451800053
:1018f4003551800015037800b5ff2f008502630081
:10190400050a7800444480000402e8004444880046
:1019140034518000940278000402200004826200a2
:10192400e00f52000f003200b544800034518000b3
:101934001402780005027200b4448800f444800064
:101944000402e800f44488003451800035518000da
:1019540015037800f5fd2f0085026300050a780061
:1019640010003700c4508000d55080000400be0031
:101974009c10070000027800e00f520005003200be
:10198400c4508000d55080000400be0060100700e1
:1019940004003700c4508000d55080000400be000d
:1019a4004a1007000080fa00000006000400fa0054
:1019b400000f7800110798001e027800ef0f520004
:1019c40007003e001e027800840242008486200044
:1019d400048242009e029000050a7800010037004c
:1019e400000000000080fa00000006000000fa0079
:1019f40044428000040078000080fa0000000600e1
:101a04000000fa000002eb00444288000080fa0063
:101a1400000006000000fa00544280000400780030
:101a24000080fa00000006000000fa006442800012
:101a3400040078000080fa00000006000000fa00ac
:101a4400848b20001402780061026200e00f5200cf
:101a5400020032000082eb00010037000002eb00bc
:101a6400040078000080fa00000006000000fa007c
:101a7400848b20001402780062026200e00f52009e
:101a8400020032000082eb00010037000002eb008c
:101a9400040078000080fa00000006000000fa004c
:101aa400848b20001402780064026200e00f52006c
:101ab400020032000082eb00010037000002eb005c
:101ac400040078000080fa00000006000000fa001c
:101ad400848b20001402780068026200e00f520038
:101ae400020032000082eb00010037000002eb002c
:101af400040078000080fa00000006000000fa00ec
:101b0400848b20001402780070026200e00f5200ff
:101b1400020032000082eb00010037000002eb00fb
:101b2400040078000080fa00000006000000fa00bb
:101b3400848b200094027800040028000482620050
:101b4400e00f5200020032000082eb000100370077
:101b54000002eb00040078000080fa000000060098
:101b64000000fa00848b20009402780004402000d6
:101b740004826200e00f5200020032000082eb0097
:101b8400010037000002eb00040078000080fa0036
:101b9400000006000000fa00848b20009402780004
:101ba4000480200004826200e00f52000200320030
:101bb4000082eb00010037000002eb000400780013
:101bc4000080fa00000006000000fa00848b200068
:101bd400940278000400210004826200e00f5200a5
:101be400020032000082eb00010037000002eb002b
:101bf400040078000080fa00000006000000fa00eb
:101c0400848b200094027800040022000482620085
:101c1400e00f5200020032000082eb0001003700a6
:101c24000002eb00040078000080fa0000000600c7
:101c34000000fa00848b2000140290000400780055
:101c44000080fa00000006000000fa00d44480007e
:101c54000402e800d44488000080fa000000060072
:101c64000000fa0004012000e45e8800010007007f
:101c7400feff37000000fa00e45e80000503200048
:101c8400850f52002a00320005032000850f520000
:101c940006003e00f00f52000e0032000502200044
:101ca400850f520013003200730037000505200031
:101cb400850f52005900320005062000850f52009e
:101cc4006400320005042000850f520043003200f6
:101cd40069003700a50107000008a8000028a80033
:101ce4000002eb00b45e880004022000e45e880079
:101cf400640037000008a8006400070007003700ec
:101d0400720007000440800062026200e00f52008b
:101d140002003a0004032000e45e8800e55e8000cf
:101d240004022000848f5200f5ff32005500370072
:101d3400b45e80000402e800b45e88000008a800d5
:101d44000002eb00d45e8800580007001e00370034
:101d54005e000700d55e8000743e2000848f520030
:101d64000e0036000002eb00b45e8800843e2000c2
:101d7400d45e88002480200014027800e00f520012
:101d8400040032002dff070000027800e00f52002b
:101d94000200320004042000e45e8800c45e800077
:101da400e00f520008003200b45e8000e50f5200dc
:101db40003003e0004052000e45e880002003700b2
:101dc40004062000e45e8800e55e80000403200031
:101dd400848f5200deff32002a0037000008a90079
:101de400248020008002eb00050a780006003700fa
:101df40036000700c45e8000e00f5200020032008b
:101e040004052000e45e8800e55e800004042000f0
:101e1400848f5200f6ff32001a0037001b000700bf
:101e24000008a8000600370028000700c45e8000f0
:101e3400e00f520002003a0004022000e45e880031
:101e4400e55e800004052000848f5200f6ff320016
:101e54000c0037000d0007000008a8000628a800a1
:101e64000100370019000700e55e80000406200029
:101e7400848f5200fbff320004062000e45e8800d9
:101e8400000000000080fa00000006000000fa00d4
:101e94000002eb00145d88000002eb00d45d8800b2
:101ea400d662a9000080fa00000006000000fa00d3
:101eb40014002000145d880014002000d45d880004
:101ec400d662a8000080fa00000006000400fa00b0
:101ed400dffa0700045f80000402e800045f880062
:101ee400a51680000400240004826200e00f520062
:101ef40007003a00e55e800004042000848f52004d
:101f040003003a000388a80014002000c45e88007f
:101f1400250480000408200004826200e00f5200bf
:101f24001001320084e0a900255f8000345f800046
:101f3400048f4200a55f8000b45f800004824200e9
:101f440014079800b45e8000840078000000eb0061
:101f540096fe0700c45e8000840078001000200014
:101f640092fe0700d45e80008400780020002000e8
:101f74008efe0700e45e80008400780030002000bc
:101f84008afe07009e0090004000200087fe0700a4
:101f9400c45d8000840078005000200083fe0700a8
:101fa400045d800084007800600020007ffe07004c
:101fb400945e800084007800700020007bfe07009f
:101fc400645680007556800004027800840078000e
:101fd4008000200075fe070064568000755680005e
:101fe4000402780084007800900020006ffe07004f
:101ff400845f800084007800a00020006bfe07004e
:102004009e007800b000200068fe0700945680000f
:1020140084007800c000200064fe0700f4538000b0
:1020240084007800d000200060fe07004455800042
:1020340084007800e00020005cfe0700a4528000c9
:1020440084007800f000200058fe0700445580000a
:10205400444088009456800054408800a452800074
:1020640064408800f453800074408800b45d8000ac
:1020740094408800f45c8000b440880065fe07004a
:1020840000027800c4408800e55e8000040320005c
:10209400848f520003003a00d45e80000402e800fa
:1020a400d45e88000440800061026200e00f5200a8
:1020b40002003200e982a90001003700e982a80089
:1020c400a51680000400280004826200e00f52007c
:1020d400020032000608a800010037000608a90023
:1020e400c0ac2000a709070080a72000a5090700ad
:1020f40020aa2000a3090700e0a42000a1090700ea
:1021040060af20009f0907000002eb00c45e880056
:10211400a51680000400220004826200e00f520031
:1021240003003a0003a8a80014002000c45e88003d
:1021340072fe070000027800e00f52000200320035
:1021440003c8a800050037003cfe07000002780021
:10215400e00f52000100320003c8a90015408000be
:102164000400240004826200e00f520002003200e6
:1021740014002000c45e88002bfe070000027800d3
:10218400e00f52000300320003e8a800140020000e
:10219400c45e8800e55e800004042000848f520041
:1021a40004003200e55e800004032000848f5200a6
:1021b40045003a00b45d800024578800f45c800038
:1021c4008454880080a72000ad090700000278002d
:1021d400e00f5200030032000208a800140020009f
:1021e400c45e880080a72000cf09070000027800a1
:1021f400e00f5200030032000228a800140020005f
:10220400c45e880080a72000f1090700000278005e
:10221400e00f5200030032000248a800140020001e
:10222400c45e880080a720002e0a07000002780000
:10223400e00f5200030032000268a80014002000de
:10224400c45e8800c0ac20008d090700000278003d
:10225400e00f52000300320002c8a800140020005e
:10226400c45e8800c0ac2000af09070000027800fb
:10227400e00f52000300320002e8a800140020001e
:10228400c45e8800c0ac2000d109070000027800b9
:10229400e00f5200030032000308a80014002000dd
:1022a400c45e8800c0ac20000e0a0700000278005b
:1022b400e00f5200080032000328a8001400200098
:1022c400c45e8800040037000002eb002457880035
:1022d4000002eb0084548800e55e800004042000c2
:1022e400848f520004003200e55e80000403200065
:1022f400848f520014003a00845e800084007800c9
:10230400e0b9200046090700745e8000840078006c
:1023140060bb200042090700e0b92000d70807008d
:1023240060bb2000d5080700045d8000c55d800007
:10233400230320000501780001032000a0a320004e
:102344009706070007003700445d8000055e8000a3
:10235400230320000501780001032000a0a320002e
:102364008f0607000080fa00000006000200fa0051
:10237400248020008002eb00050a780004802000fd
:102384008002eb00050a7800448020008002eb0004
:10239400050a7800648020008002eb00050a7800ba
:1023a4000002eb00b45d88000002eb00f45c8800de
:1023b400c404800004c0a10004d0a00004e0a00074
:1023c400c4048800f4f72f00041688000082eb0090
:1023d400341688000082eb006416880044ff2f0046
:1023e400941688000082eb00f4168800f4ff2c0099
:1023f40024178800d642a8000002eb008408880055
:10240400440d2300740888000002eb00540888007f
:1024140084e0a900d4f92d0094088800f4cf2700a3
:1024240004158800e4fd26001415880084442e0059
:1024340024158800242e2e003415880034c02f0063
:1024440044158800c43f2000541588008560a90005
:102454008d60a800a1e2a80024002000450020000f
:10246400849fbe0006002800c7002000045a2200f2
:1024740065022000026829008309200021c0b300fe
:10248400a0a3200055050700e48757008200200020
:10249400c300200040002000c1002000cf0007003e
:1024a40016c0b30001cab30004a8210065002000cf
:1024b4000268290083092000000022005e02070050
:1024c40004002200c5002000849fbe0004002200f6
:1024d400c5002000849fbe004600200004002200a6
:1024e400c500200071002000026829008309200033
:1024f40010002000bef70700e887570025002000e1
:102504000002eb001300200012002000e003290069
:10251400010020002ef907000003eb00c551220042
:10252400045f25008041eb000001eb00914f210086
:1025340060bb2000040807000003eb008002eb00ee
:1025440004ee220023c0b3000001eb00914f2100f0
:10255400e0b92000fc07070024032000841f780052
:1025640024032000841f7800077d20000600220039
:102574008002eb0004dc250013c0b3000001eb0073
:1025840021902100c0ac200082070700e487570097
:1025940024032000841f780024032000841f780073
:1025a400077d2000060022008002eb0084a923009e
:1025b40023c0b3000001eb002190210080a720007c
:1025c40074070700e487570024032000841f780061
:1025d40024032000841f7800077d200006002200c9
:1025e4008002eb0004dc250033c0b3000001eb00e3
:1025f4001178200020aa200066070700e48757000e
:10260400441f2000841f7800441f2000841f78008a
:10261400077d2000363327008002eb0004dc250010
:1026240043c0b3000001eb0011782000e0a42000b7
:1026340058070700e4875700f4ff2700841f780039
:10264400f4ff2700841f78008083eb000600280035
:10265400052c21000445210053c0b3000001eb0008
:102664000120200060af20004a070700e4875700dc
:10267400f4ff2700841f7800f4ff2700841f7800ec
:102684008083eb0006002800458a2300c4c8230089
:1026940063c0b3000001eb002140200000b2200021
:1026a4003c070700e4875700f4ff2700841f7800e5
:1026b400f4ff2700841f78008083eb0006002800c5
:1026c400458a2300c4c8230073c0b3000001eb0093
:1026d40001102000a0b420002e070700e487570053
:1026e400f4ff2700841f7800f4ff2700841f78007c
:1026f4008083eb000600280005e027000420280062
:1027040083c0b3000001eb000100210040b72000aa
:1027140020070700e48757000002eb00040f78004d
:1027240026003700caf807002504800004082000aa
:1027340004826200e00f52000200320084e0a9002b
:102744001e0fe8001e0278004422de0063026200cd
:10275400050020003600200007002000860f5200ec
:10276400878f5a0015003e00046001000300370003
:1027740006003700090037000c003700c4e2a80047
:10278400e982a800e9a2a8000c003700c4e2a9006d
:10279400e982a800e9a2a80008003700c4e2a90061
:1027a400e982a900e9a2a80004003700c4e2a90054
:1027b400e982a900e9a2a900000000000419200090
:1027c4009e027800848f5200d6ff3600c4e2a9002e
:1027d4000048a9000080fa00000006001600fa0074
:1027e40070079800010f9800120f9800230f9800ab
:1027f40004168000140798003416800024079800fb
:1028040064168000340798009416800044079800ea
:10281400f416800054079800241780006407980079
:102824007e0090008e089000dc0c07001e089000cb
:10283400ae089000c80c07007e0090008e0890003f
:10284400a20c07004001200001002000360d070003
:102854001e089000ae089000d00c07001e089000df
:10286400ae089000aa0c07004001200001002000df
:102874002d0d07007e0090008e089000a40c070028
:102884001e089000ae089000b30c07004001200021
:1028940001002000240d07000042eb00044f7800e3
:1028a4000d0037007e0090008e089000870c070012
:1028b40040012000010020001b0d07007e00900055
:1028c4008e089000920c07004001200001002000b7
:1028d400150d07001e4fe8001e427800e74f520016
:1028e400f0ff34007e0090008e089000770c070003
:1028f40040012000010020000b0d07001e0890007d
:10290400ae089000a50c07001e089000ae089000c9
:102914007f0c07004001200001002000020d070089
:102924001e089000ae0890008b0c070040012000a8
:1029340001002000fc0c07001e0290000416880011
:102944002e029000341688003e029000641688001f
:102954004e029000941688005e029000f4168800df
:102964006e029000241788000080fa000000060020
:10297400801f7800849fbe00869fbe000000fa007e
:102984008560a900a45e8000e00f520003003200bd
:102994000002eb00a45e88000701370015158000d3
:1029a4000408200004826200e00f5200410032005b
:1029b40066568000775680000414800005002000cd
:1029c4000602420087824a006456880075568800d1
:1029d400c6538000d75380001414800005002000e3
:1029e4000602420087824a00c4538800d5538800f7
:1029f400165580002755800024148000050020000f
:102a04000602420087824a00145588002555880032
:102a14007652800087528000341480000500200024
:102a24000602420087824a00745288008552880058
:102a340006598000175980004414800005002000c6
:102a44000602420087824a0004598800155988000a
:102a5400565a8000675a80005414800005002000f4
:102a64000602420087824a00545a8800655a880048
:102a7400b6578000c757800064148000050020000a
:102a84000602420087824a00b4578800c55788006e
:102a9400a65b8000b75b80007414800005002000f2
:102aa4000602420087824a00a45b8800b55b880066
:102ab40040003700665680007756800084148000fa
:102ac400050020000602420087824a0064568800fe
:102ad40075568800c6538000d75380009414800034
:102ae400050020000602420087824a00c453880081
:102af400d55388001655800027558000a414800003
:102b0400050020000602420087824a00145588000e
:102b1400255588007652800087528000b4148000c6
:102b2400050020000602420087824a007452880091
:102b3400855288000659800017598000c41480000b
:102b4400050020000602420087824a0004598800da
:102b540015598800565a8000675a8000d4148000a2
:102b6400050020000602420087824a00545a880069
:102b7400655a8800b6578000c7578000e414800067
:102b8400050020000602420087824a00b4578800ec
:102b9400c5578800a65b8000b75b8000f4148000f2
:102ba400050020000602420087824a00a45b8800d8
:102bb400b55b8800945e80000402e800945e88009f
:102bc400955e8000f4072000848f52007a0036005e
:102bd40064568000755680004d2bdd004322de00d4
:102be40004027300c32ade00645688007556880008
:102bf400645680007556800004027800845688006c
:102c04006022b8006456880075568800c45380005a
:102c1400d55380004d2bdd004322de0004027300f7
:102c2400c32ade00c4538800d5538800c4538000ef
:102c3400d553800004027800e45388006022b80071
:102c4400c4538800d553880014558000255580004e
:102c54004d2bdd004322de0004027300c32ade0094
:102c6400145588002555880014558000255580008a
:102c740004027800345588006022b8001455880096
:102c84002555880074528000855280004d2bdd004c
:102c94004322de0004027300c32ade00745288005b
:102ca40085528800745280008552800004027800a6
:102cb400945288006022b8007452880085528800bb
:102cc40004598000155980004d2bdd004322de009d
:102cd40004027300c32ade000459880015598800d1
:102ce4000459800015598000040278002459880092
:102cf4006022b8000459880015598800545a80008d
:102d0400655a80004d2bdd004322de00040273006f
:102d1400c32ade00545a8800655a8800545a800039
:102d2400655a800004027800745a88006022b80052
:102d3400545a8800655a8800b4578000c5578000eb
:102d44004d2bdd004322de0004027300c32ade00a3
:102d5400b4578800c5578800b4578000c557800011
:102d640004027800d45788006022b800b457880061
:102d7400c5578800a45b8000b55b80004d2bdd0047
:102d84004322de0004027300c32ade00a45b880031
:102d9400b55b8800a45b8000b55b8000040278000a
:102da400c45b88006022b800a45b8800b55b88001f
:102db4000002eb00945e88000080fa004f03be001e
:102dc4004f02be004f007800004006000400fa00e5
:102dd400100798001e029000c4029000050f7800ae
:102de4009e02780004202700848f520009003a00d4
:102df4001e02900024029000845e88001e0290004f
:102e040014029000745e88000028a90000000000ed
:102e140001003700000000000080fa0000000600f6
:102e24000000fa0000000000000000000000fe00a6
:102e34000080fa00004006000c00fa00000f780041
:102e44001207980023079800340798004507980054
:102e5400214f9800364f98002e489000ecebb700b5
:102e64003e489000edebb7001e027800745f8800c6
:102e7400edcbbf006033b8001e029000ae0290009c
:102e84003e019000ce01900001022b0007090700cb
:102e94000080fa00000006001000fa0060079800a5
:102ea40071079800745f80008402d1006e02900064
:102eb400848f5200790036007e0290004822de00a2
:102ec400644798007e029000744798006e02900058
:102ed40004024200440798004e0290004822de009b
:102ee400244f98004e029000344f980014002000a4
:102ef400040f7800d4be2000144278000440780007
:102f04002809070000027800040f7800d4be2000ce
:102f14001442780004407800430907000002780056
:102f24001e0f7200d5be200095427800c4be20005a
:102f34001442780085407800044078007c0907003a
:102f4400000278001e0f7200441080004f22de0041
:102f5400044278000482fb00240798000002eb007e
:102f64001407980023003700d4be200014427800d0
:102f740004407800de090700000278001e0f72008a
:102f8400d4be2000144278000440780005090700ec
:102f940000027800040f7800d4be200014427800a8
:102fa4000440780020090700000278001e0f720018
:102fb400d5be200095427800c4be2000144278009b
:102fc4008540780004407800590907000002780021
:102fd4001e0f7200441080004f22de00044278006d
:102fe4000482fb00240798001e0290000402e800fb
:102ff400140798002e029000e00f520004003200e3
:103004009e029000840c2000848f5200d6ff36006c
:10301400d4be200014427800844078002e489000ea
:1030240043090700000278001e0f7200d4be20007e
:1030340014427800844078003e4890003c09070020
:10304400000278001e0f7200d4be200014427800e3
:10305400844078007e409000350907000002780023
:103064001e0f7200d4be2000144278008440780001
:103074006e4090002e090700000278001e0f7200b7
:10308400d4be200014427800044078009809070058
:10309400000278001e0f7200020037000082eb006d
:1030a400040f78000080fa00000006000e00fa0009
:1030b40060079800745f80008402d1006e02900063
:1030c400848f52008c0036006e029000040242008d
:1030d400440798004e0290004822de00244f9800d6
:1030e4004e029000344f9800d4be20001442780061
:1030f40004407800ab08070000027800040f780051
:10310400d4be20001442780004407800c6080700aa
:10311400000278001e0f7200d5be20009542780090
:10312400c4be200014427800854078000440780032
:10313400ff080700000278001e0f72004410800090
:103144004f22de00044278000482fb00340798001a
:103154000002eb002407980023003700d4be2000af
:1031640014427800044078006109070000027800e6
:103174001e0f7200d4be2000144278000440780070
:103184008808070000027800040f7800d4be2000ed
:103194001442780004407800a30807000002780075
:1031a4001e0f7200d5be200095427800c4be2000d8
:1031b400144278008540780004407800dc08070059
:1031c400000278001e0f7200441080004f22de00bf
:1031d400044278000482fb00340798002e02900019
:1031e4000402e800240798003e029000e00f520019
:1031f40004003200ae029000840c2000848f520040
:10320400d6ff3600d4be20001442780084407800f3
:103214002e489000c6080700000278001e0f7200b6
:10322400d4be200014427800844078003e489000c8
:10323400bf080700000278001e0f7200d4be2000f1
:1032440014427800044078009808070000027800cf
:103254001e0f7200d5be200095427800c4be200027
:10326400144278000404a0008540780004407800eb
:10327400af080700000278001e0f7200d4be2000c1
:103284001442780004407800e00807000002780047
:1032940024479800d4be20001442780004407800eb
:1032a40034090700000278001e0f7200d4be20000b
:1032b4001442780004407800d40807000002780023
:1032c40034479800d4be20001442780004407800ab
:1032d4004a090700000278001e0f7200d4be2000c5
:1032e40014427800044078000109070000027800c5
:1032f4001e0f7200060037000082eb00040f7800f6
:103304000042eb00244798000042eb003447980049
:103314003e4290000482fb00440798004e02900055
:103324004822dd00440798002e4290000482fb00ee
:10333400ce02900004824200440798004e0290009e
:10334400040078000080fa00000006001400fa006f
:1033540070079800010f9800120f98000e0a900051
:10336400e00f5200950032000e0a9000f00f520058
:103374000200360004012000040f9800745f8000ee
:10338400c522de007e029000848f52008900360040
:103394007e0290004522dd00440798004e02900012
:1033a4004822de00244f98004e029000344f9800cb
:1033b400d4be20001442780004407800f9070700c6
:1033c40000027800040f7800d4be20001442780074
:1033d4000440780014080700000278001e0f7200f1
:1033e400d5be200095427800c4be20001442780067
:1033f40085407800044078004d08070000027800fa
:103404001e0f7200441080004f22de000442780038
:103414000482fb00340798000002eb0024079800a4
:1034240023003700d4be2000144278000440780002
:10343400af080700000278001e0f7200d4be2000ff
:103444001442780004407800d60707000002780090
:10345400040f7800d4be20001442780004407800a1
:10346400f1070700000278001e0f7200d5be20008d
:1034740095427800c4be200014427800854078004c
:10348400044078002a080700000278001e0f72002a
:10349400441080004f22de00044278000482fb00c6
:1034a400340798002e0290000402e80024079800d4
:1034b4003e029000e00f520004003200ae02900081
:1034c400840c2000848f5200d6ff3600d4be200026
:1034d40014427800844078002e48900014080700b5
:1034e400000278001e0f7200d4be2000144278003f
:1034f400844078003e4890000d08070000027800e0
:103504001e0f72000002eb00140798001e00370023
:103514001e029000040242009e0a900004824200af
:10352400140278004822de00444f98001e029000e6
:10353400040242009e0a90000482420014027800b1
:10354400544f9800d4be2000144278008440780080
:103554005e489000f6070700000278001e0f720014
:10356400d4be200014427800844078004e48900075
:10357400ef070700000278001e0f72001e02900081
:103584000402e800140798009e0290000e0a9000be
:10359400848f5200deff3900d4be2000144278002c
:1035a4000440780052080700000278001e0f7200e1
:1035b400020037000082eb00040f78000080fa005c
:1035c400000006001400fa0070079800010f98002c
:1035d400120f98000e0a9000e00f5200fd00320016
:1035e4000e0a9000f00f5200020036000401200081
:1035f400040f9800745f8000c522de007e029000f4
:10360400848f5200ed0036007e0290004522dd00da
:10361400440798004e0290004822de00244f980090
:103624004e029000344f9800d4be2000144278001b
:10363400044078005b07070000027800040f78005c
:10364400d4be2000144278000440780076070700b6
:10365400000278001e0f7200d5be2000954278004b
:10366400c4be2000144278008540780004407800ed
:10367400af070700000278001e0f7200441080009c
:103684004f22de00044278000482fb0034079800d5
:103694000002eb002407980023003700d4be20006a
:1036a40014427800044078001108070000027800f2
:1036b4001e0f7200d4be200014427800044078002b
:1036c4003807070000027800040f7800d4be2000f9
:1036d4001442780004407800530707000002780081
:1036e4001e0f7200d5be200095427800c4be200093
:1036f4001442780085407800044078008c07070065
:10370400000278001e0f7200441080004f22de0079
:10371400044278000482fb00340798002e029000d3
:103724000402e800240798003e029000e00f5200d3
:1037340004003200ae029000840c2000848f5200fa
:10374400d6ff3600d4be20001442780084407800ae
:103754002e48900076070700000278001e0f7200c2
:10376400d4be200014427800844078003e48900083
:103774006f070700000278001e0f7200d4be2000fd
:1037840014427800044078004807070000027800db
:103794001e0f7200d5be200095427800c4be2000e2
:1037a400144278000404a0008540780004407800a6
:1037b4005f070700000278001e0f72000002eb0092
:1037c400140798003a003700d4be20001442780051
:1037d400044078008d07070000027800444f9800e9
:1037e400d4be20001442780004407800e1070700aa
:1037f400000278001e0f7200d4be2000144278002c
:10380400044078008107070000027800544f9800b4
:10381400d4be20001442780004407800d507070085
:10382400000278001e0f72001e0290000402420083
:103834009e0a9000848242005e4a90000482fb004b
:10384400840a78001e029000040242009e0a90003e
:10385400848242001e029000040242001e0b90006b
:1038640004024300140278004822dd00840a780030
:103874001e029000040242009e0a900084824200cc
:103884001e029000040242001e0b9000040243003a
:10389400140378004e4a90000482fb0004024300a3
:1038a400840a78001e0290000402e80014079800bd
:1038b4000e0a90008402e9001e029000848f5200d8
:1038c400c1ff3e00d4be20001442780004407800ba
:1038d4004e07070000027800444f9800d4be200031
:1038e4001442780004407800a20707000002780020
:1038f4001e0f7200d4be20001442780004407800e9
:103904004207070000027800544f9800d4be2000fc
:103914001442780004407800b807070000027800d9
:103924001e0f72001e029000040242009e0a9000c4
:10393400848242005e4a90000482fb00840a78007c
:103944001e029000040242009e0a900084824200fb
:103954001e029000040242001e0b90000402430069
:10396400140278004822dd00840a78001e029000c8
:10397400040242009e0a9000848242001e029000cb
:10398400040242001e0b900004024300140378005a
:103994004e4a90000482fb0004024300840a78002b
:1039a400d4be200014427800044078005007070079
:1039b400000278001e0f7200060037000082eb0040
:1039c400040f78000042eb00444f98000042eb00e3
:1039d400544f98000080fa00000006001000fa001e
:1039e400000f7800214798002207980033079800b9
:1039f40044079800550798006607980077079800d1
:103a04001e027800ae429000054a78001e0278003b
:103a14006e039000fe03900016029800270298009f
:103a24001e0278003ebb9700cebb9700360298007a
:103a3400470298001e03780004002000e5002000df
:103a440054039800650398001e03780004002000c6
:103a5400e500200074039800050b98001e0278000e
:103a6400e4029000540290000400be00170807000e
:103a74001e027800c4029000340290000400be00cc
:103a8400230807001e027800a4029000140290008c
:103a94000400be000d0807001e02780024529000a6
:103aa400e04f5200060032001e027800840a9000a3
:103ab400740290000400be000408070005003700eb
:103ac4001e027800840a9000740290000400be0074
:103ad4000f0807001e027800e402900054029000d0
:103ae4000400be002d0807001e027800c4029000e6
:103af400340290000400be00280807001e0278006b
:103b0400a4029000140290000400be0023080700e1
:103b14001e027800840a9000740290000400be0023
:103b24001e0807001e027800144078002e0390003f
:103b3400be0390004e029000de02900003002a00b3
:103b44000001eb00f15320005c0407000080fa0040
:103b5400000006000200fa00000f78001e02780040
:103b6400e4029000540290000400be00e80707003d
:103b74000000000000000000000000000000000041
:103b84001e027800e4029000540290000400be007b
:103b9400ce0707000080fa00000006001000fa00bb
:103ba4005007980061079800720798000042eb00e4
:103bb400044f78005e029000a4029000140290006a
:103bc4000400be00d20707005e0290001442780091
:103bd400844078006e009000030507000002be00d8
:103be40034079800450798003e039000ce039000e8
:103bf4000400200015112100840f5300858f5b0001
:103c040002003a0014c0b300044f78001e4278004a
:103c1400e04f520010003a005e0290001442780017
:103c2400844078007e009000ef0407000002be008c
:103c340034079800450798003e039000ce03900097
:103c44000400200015112100840f5300858f5b00b0
:103c540001003a001e14a0005e029000a40290002d
:103c6400140290000400be00980707000000000042
:103c74000000000000000000000000005e02900050
:103c8400a4029000140290000400be00a0070700e4
:103c94001e427800e04f520012003a005e0290008b
:103ca4001442780084407800000f2000ce040700fe
:103cb4000002be0034079800450798003e029000b9
:103cc400140798003e039000ce03900004002000e7
:103cd40015112100840f5300858f5b0001003a0009
:103ce4001e24a0001e427800e04f520012003a0049
:103cf4005e02900014427800844078000000eb00db
:103d0400b90407000002be00340798004507980074
:103d14003e029000240798003e039000ce039000da
:103d24000400200015112100840f5300858f5b00cf
:103d340001003a001e34a0005e029000a40290002c
:103d4400140290000400be00600707009e02900069
:103d54006e029000848f5200010032001e44a000c5
:103d6400ae0290007e029000848f52000200320066
:103d740004c2b3001e4f72001e427800e04f52008e
:103d840003003200c45f80000402e800c45f8800be
:103d94001e427800044078000080fa00000006000b
:103da4001400fa0050079800610798007207980001
:103db400030f9800140f98000042eb00044f7800a2
:103dc4005e029000a4029000140290000400be0061
:103dd4004f0707005e029000144278008440780088
:103de4006e009000800407000002be0034079800b3
:103df400450798003e039000ce0390000400200085
:103e040015112100840f5300858f5b0002003a00d6
:103e140014c0b300044f78001e427800e04f5200f3
:103e240010003a005e02900014427800844078004a
:103e34007e0090006c0407000002be003407980066
:103e4400450798003e039000ce0390000400200034
:103e540015112100840f5300858f5b0001003a0087
:103e64001e14a0005e029000a402900014029000b0
:103e74000400be0015070700000000000000000059
:103e840000000000000000005e029000a402900008
:103e9400140290000400be001d0707005e0290009b
:103ea40014427800844078000e0890004e04070005
:103eb4000002be0034079800450798003e029000b7
:103ec400140798003e039000ce03900004002000e5
:103ed40015112100840f5300858f5b0002003a0006
:103ee40014c0b300044f78001e427800e04f520023
:103ef40012003a005e029000144278008440780078
:103f04001e089000380407000002be003407980021
:103f1400450798003e029000240798003e03900055
:103f2400ce0390000400200015112100840f5300db
:103f3400858f5b0001003a001e14a0009e029000d1
:103f44006e029000848f5200010032001e44a000d3
:103f5400ae0290007e029000848f52000200320074
:103f640004c2b3001e4f72005e029000a4029000cf
:103f7400140290000400be00d406070000000000f4
:103f84000000000000000000000000005e0290003d
:103f9400a4029000140290000400be00dc06070096
:103fa4001e427800e04f520012003a005e02900078
:103fb4001442780084407800000f20000a040700af
:103fc4000002be0034079800450798003e029000a6
:103fd400140798003e039000ce03900004002000d4
:103fe40015112100840f5300858f5b0001003a00f6
:103ff4001e24a0001e427800e04f520012003a0036
:104004005e02900014427800844078000000eb00c7
:10401400f50307000002be00340798004507980026
:104024003e029000240798003e039000ce039000c7
:104034000400200015112100840f5300858f5b00bc
:1040440001003a001e34a0005e029000a402900019
:10405400140290000400be009c0607009e0290001b
:104064000e0a9000848f5200010032001e44a0000a
:10407400ae0290001e0a9000848f520002003200ab
:1040840004c2b3001e4f72001e427800e04f52007b
:1040940003003200c45f80000402e800c45f8800ab
:1040a4001e427800044078000080fa0000000600f8
:1040b4001000fa0060079800710798000042eb00b6
:1040c400044f78000042eb00644798005700370023
:1040d4006e029000a4029000140290000400be003e
:1040e4008b0607006e029000144278006e43900025
:1040f40005c3b300854273008582fb0084407800c9
:1041040005007800b80307000002be0044079800c9
:10411400550798004e029000140798004e03900033
:10412400de0390000400200015112100840f5300c9
:10413400858f5b0002003a0014c0b300044f78007e
:104144001e427800e04f520018003a006e029000c0
:1041540014427800ee4290008582fb008582420082
:104164007e03900085024300950278008440780025
:10417400050078009c0307000002be004407980075
:10418400550798004e029000240798004e039000b3
:10419400de0390000400200015112100840f530059
:1041a400858f5b0001003a001e14a0006e4290004f
:1041b400e04f5200150032006e4290000482fb0072
:1041c4008402e900040320000502720084027800de
:1041d4001e029000848f5200010032001e24a000b1
:1041e4006e4290000482fb000402e90004024200d3
:1041f400fe02900004824200940278002e02900095
:10420400848f5200010032001e34a0006e02900020
:10421400a4029000140290000400be002b060700c4
:104224006e4290000442e800644798001e42780001
:10423400e04f520003003a006e429000e74f5200f4
:10424400a3ff36006e029000a402900014029000b6
:104254000400be002e0607001e427800e04f520004
:1042640012003a006e0290001442780084407800f4
:10427400000f20005c0307000002be004407980002
:10428400550798004e029000140798004e039000c2
:10429400de0390000400200015112100840f530058
:1042a400858f5b0001003a001e04a0001e427800c6
:1042b400e04f520012003a006e029000144278005f
:1042c400844078000000eb00470307000002be00b2
:1042d40044079800550798004e0290002407980060
:1042e4004e039000de03900004002000151121000d
:1042f400840f5300858f5b0001003a001e14a00058
:104304006e029000a4029000140290000400be000b
:10431400ee0507006e4290000482fb008402e9006f
:104324000403200005027200840278001e0290003b
:10433400848f5200010032001e44a0006e4290009f
:104344000482fb000402e90004024200fe02900021
:1043540004824200940278002e029000848f52005e
:104364000200320004c2b3001e4f72001e427800e5
:10437400e04f520003003200d45f80000402e800e2
:10438400d45f88001e427800044078000080fa0060
:10439400000006001200fa00100798002107980098
:1043a40032079800034f9800540798006507980057
:1043b40076079800070f98003eba9700e00f520066
:1043c40002003d00f4ff270034bf9f004eba97005f
:1043d400e00f520002003d00f4ff270044bf9f009d
:1043e4000002eb00040f78001e0390006022b80066
:1043f400048bbe001e0290008002eb002502980090
:104404001e0290008002eb00350298001e0290000c
:10441400ae029000450298001e029000be02900079
:10442400550298000e4a9000ef4f52000d003600de
:104434001e02900005002800650298001e029000ec
:104444008002eb00750298001e029000050028000f
:10445400050a98001e0290008002eb00150a9800dd
:104464001f0037000e4a90000482fb000404b000d1
:104474004222dd00040f78001e0078000bfb0700c9
:1044840000027800840278001e02900075029800f1
:104494001e02e8000400780004fb07000002780014
:1044a4009e029000e40298001e82e8000400780056
:1044b400fefa070000027800840278001e029000d1
:1044c400150a98009e027800638242000400780076
:1044d400f6fa0700000278009e029000840a980011
:1044e4001e029000de029000250a98001e02900031
:1044f400ee029000350a98001e029000fe02900021
:10450400550a98001e0290008e0a9000650a9800d1
:104514001e0290008002eb00750a98001e029000b3
:104524008002eb00051298001e029000ceba97009c
:10453400151298001e029000beba9700451298000a
:104544000080fa00000006001000fa00100798002e
:104554002107980032079800034f980054079800e9
:1045640065079800760798000002eb00040f7800b6
:104574001e0290008002eb00250298001e029000ab
:10458400de029000350298001e029000ee029000b8
:10459400450298001e029000fe0290005502980009
:1045a4001e029000ae029000650298001e02900068
:1045b400be029000750298000e4a9000e74f520028
:1045c4000d0036001e02900005002800050a980020
:1045d4001e0290008002eb00150a98001e02900053
:1045e40005002800250a98001e0290008002eb00b6
:1045f400350a98001f0037000e4a90000482fb0021
:104604000405b0004222dd00040f78001e0078008b
:10461400a6fa070000027800840278001e029000c7
:10462400150a98001e02e800040078009ffa0700ab
:10463400000278009e029000840a98001e82e8001e
:104644000400780099fa07000002780084027800d8
:104654001e029000350a98009e0278006382420090
:104664000400780091fa0700000278009e0290008e
:10467400a40a98000080fa00000006000400fa0072
:10468400100798001e029000940278001e02900009
:1046940034029000848f5200040036001e02900001
:1046a400b40290001e029000050a78001e029000d9
:1046b400940278001e02900044029000848f5200fd
:1046c400040031001e029000c40290001e029000fb
:1046d400050a78001e029000740390001e029000e8
:1046e400e40290001e029000140278000601780093
:1046f4008500780004007800600507000002780057
:10470400040f78001e029000940a90001e0290008c
:10471400040a900005017800840078001e007800e7
:104724004105070000027800040f78001e02900083
:10473400b40a90001e029000240a9000050178003b
:10474400840078001e007800370507000002780016
:10475400040f78001e02900024029000e00f520023
:1047640003003a001e029000d4029000050f780066
:104774001e0290009e027800150298000080fa0044
:10478400000006000400fa00100798001e029000c2
:10479400140b90001e029000840a90001e029000e8
:1047a4002402900006017800850078000400780057
:1047b4001d05070000027800040f78001e02900017
:1047c400f40290001e02900064029000050178003b
:1047d400840078001e0078001305070000027800aa
:1047e400040f78001e029000d40290001e02900074
:1047f4004402900005017800840078001e007800cf
:104804001e05070000027800040f78001e029000c5
:104814009e027800350298000080fa00000006002d
:104824000400fa00000f7800110798001e027800b7
:10483400b40290001e029000848f520003003100e5
:104844001e027800b4029000150798001e0278003a
:10485400c40290001e029000848f520003003600b0
:104864001e027800c4029000150798001e0278000a
:104874009e029000050a78000080fa0000000600fd
:104884000200fa00000f78001e027800b4029000c3
:104894001e027800240a9000848f52000d00360016
:1048a4001e027800a41290001e02780044129000a8
:1048b40004024200848f52000f003e001e02780062
:1048c400241290008402e8001e0278002512980049
:1048d400090037001e02780024129000e00f5200f5
:1048e400050032001e027800241290008402e900c0
:1048f4001e027800251298001e027800a41290006f
:104904001e02780044129000848f52000200360088
:1049140014002000010037000002eb0004007800be
:104924000080fa00000006000200fa00000f780080
:104934001e027800b40290001e027800340a90002f
:10494400848f52000d0031001e027800b4129000d2
:104954001e0278004412900004024200848f520028
:104964000f003e001e027800341290008402e8001a
:104974001e02780035129800090037001e027800e4
:1049840034129000e00f5200050032001e0278003d
:10499400341290008402e9001e0278003512980057
:1049a4001e027800b41290001e0278004412900097
:1049b400848f5200020036001400200001003700ea
:1049c4000002eb00040078000080fa0000000600fa
:1049d4000400fa00100798001e029000d40a900008
:1049e4001e029000440a90000001eb00850078004c
:1049f400040078008c04070000027800040f78009b
:104a04001e029000640a90009e0f520003003600bc
:104a14001e029000e40a9000050f780004f02f00b5
:104a24009e0252001e029000440a9000848f52009d
:104a3400040036001e029000440a90001e0f42003b
:104a44000200370004f02f00040f78001e029000cb
:104a5400340290009e0f52000d0036001e0290009a
:104a6400f40a90001e029000141290000402420006
:104a7400848f52000f003e001e029000740a9000c2
:104a84008402e8001e029000750a980009003700ad
:104a94001e029000740a9000e00f520005003200dc
:104aa4001e029000740a90008402e9001e02900025
:104ab400750a98001e029000f40a90001e029000ed
:104ac40014129000848f5200020039001400200058
:104ad400010037000002eb00040078000080fa00b7
:104ae400000006000400fa00100798001e0290005f
:104af400d40a90001e029000440a90000001eb00ca
:104b0400850078000400780047040700000278005c
:104b1400040f78001e029000640a90009e0f520059
:104b2400030036001e029000e40a9000050f78008e
:104b34001e029000440a90009e0f520004003600aa
:104b44001e029000440a90001e0f5200020037001b
:104b54000002eb00040f78001e0290003402900063
:104b64009e0f52000d0031001e029000841290002e
:104b74001e0290001412900004024200848f52001e
:104b84000f003e001e029000041290008402e80010
:104b94001e02900005129800090037001e029000c2
:104ba40004129000e00f5200050032001e02900033
:104bb400041290008402e9001e029000051298007d
:104bc4001e029000841290001e02900014129000a5
:104bd400848f5200020039001400200001003700c5
:104be4000002eb00040078000080fa0000000600d8
:104bf4000000fa00f01f20002cf9070000027800e2
:104c0400a5aa2a00850f520002003a0014002000d1
:104c1400010037000002eb00040078000080fa0075
:104c2400000006000000fa00a21b28000101200079
:104c340000012000c5f90700a21b28000101200083
:104c440010012000c1f90700a21b28000101200067
:104c540020012000bdf90700a21b2800010120004b
:104c640030012000b9f90700a21b2800010120002f
:104c740040012000b5f90700a21b28000101200013
:104c840050012000b1f90700a21d280001012000f5
:104c940060012000adf90700a21d280001012000d9
:104ca40070012000a9f90700a1aa2a00f01f200022
:104cb40079f807000080fa00000006001400fa00ea
:104cc400404798003107980042079800530798001e
:104cd4006407980075079800060f9800170f98004e
:104ce4003e029000f401b300340798000e0b9000cc
:104cf4009e0b9000463add00ca32de008502720047
:104d04004632dd006e019000fe0190000400be00fa
:104d140087ed07000002be00048fbe0004202000bf
:104d2400050020001e03be00840f5300858f5b0026
:104d340003003e0014002000145f88003200370096
:104d440034802000050020001e03be00840f5300a1
:104d5400858f5b000d003e0044002000145f880036
:104d64001e02be004e2bdd004222de000402730050
:104d7400c22ade00048fbe00be029000e4ff2f00b2
:104d840004826200340798001f003700f4002200f8
:104d9400050020001e03be00840f5300858f5b00b6
:104da4000d003e0004012000145f88001e02be00b6
:104db4004c2bdd004422de0004027300c42ade0012
:104dc400048fbe00be029000d4ff2f000482620054
:104dd400340798000c00370004042000145f880096
:104de4001e02be004a2bdd004622de0004027300d0
:104df400c62ade00048fbe00be029000c4ff2f004e
:104e04000482620034079800041c2000050020007e
:104e14001e03be00840f5300858f5b00080036001c
:104e2400145f80004322dd00145f8800be029000fe
:104e340034fe2f00048262003407980057003700c4
:104e440004182000050020001e03be00840f530038
:104e5400858f5b0009003600145f80006722b9006b
:104e640004027800145f8800be02900074fe2f00d4
:104e740004826200340798004800370004142000bc
:104e8400050020001e03be00840f5300858f5b00c5
:104e940009003600145f80006622b900040278001d
:104ea400145f8800be029000b4fe2f0004826200ea
:104eb4003407980039003700041020000500200052
:104ec4001e03be00840f5300858f5b00090036006b
:104ed400145f80006522b90004027800145f880022
:104ee400be029000f4fe2f00048262003407980092
:104ef4002a003700040c2000050020001e03be0019
:104f0400840f5300858f5b0008003600145f800017
:104f14004222dd00145f8800be02900034ff2f009f
:104f240004826200340798001c0037000408200043
:104f3400050020001e03be00840f5300858f5b0014
:104f440009003600145f80006322b900040278006f
:104f5400145f8800be02900074ff2f000482620078
:104f6400340798000d0037000404200005002000d9
:104f74001e03be00840f5300858f5b0007003600bc
:104f8400145f800004024200145f8800be02900097
:104f9400b4ff2f000482620034079800145f80007d
:104fa4004222dd00145f88004e429000e14f52001f
:104fb40004003a003e029000141188005e03900041
:104fc400061188004e429000e24f520004003a005d
:104fd4003e029000441188005e0390003611880060
:104fe4000080fa00000006000c00fa004007980058
:104ff400214f98000042eb00044f78002e4a9000a5
:10500400e14f520054003a008500a9004e0290007e
:10501400241188000002eb003407980018003700c0
:105024003e0290000402e80034079800145f8000f8
:10503400be029000848f52000300360034c0b300d7
:10504400044f78000e00370005118000040420008e
:1050540004826200e00f52000300320044c0b30037
:10506400044f7800060037000411800062026200d9
:10507400e00f520002003a0014c0b300044f78005d
:105084001e427800e04f5200e5ff32002000370056
:105094003e0290000402e80034079800145f800088
:1050a400be029000848f52000300360034c0b30067
:1050b400044f780016003700051180000404200016
:1050c40004826200e00f52000300320044c0b300c7
:1050d400044f78000e0037002504800004102000df
:1050e40004826200e00f52000300320024c0b300c7
:1050f400044f78000600370004118000610262004a
:10510400e00f52000200320024c0b300044f7800c4
:105114001e427800e14f5200ddff32001e4278004b
:10512400e24f520005003a002411800005002000df
:105134001407980025079800070037000400200092
:10514400151121001407980025079800245f80009a
:105154000402e800245f88002e4a9000e24f5200c7
:105164004d003a008740a9004e0290005411880077
:105174000002eb0034079800180037003e0290004c
:105184000402e80034079800145f8000be02900017
:10519400848f52000300360034c0b300044f7800fb
:1051a4000e003700351180000404200004826200e0
:1051b400e00f52000300320044c0b300044f7800f3
:1051c400060037003411800062026200e00f5200d2
:1051d40002003a0014c0b300044f78001e42780065
:1051e400e04f5200e5ff3200190037003e02900004
:1051f4000402e80034079800145f8000be029000a7
:10520400848f52000300360034c0b300044f78008a
:105214000f0037003511800004042000048262006e
:10522400e00f52000300320044c0b300044f780082
:105234000700370035048000044020000482620027
:10524400e00f52000200320024c0b300044f780083
:105254001e427800e14f5200e4ff32001e42780003
:10526400e24f520005003a0054118000050020006e
:105274001407980025079800070037000400200051
:10528400151121001407980025079800345f800049
:105294000402e800345f88001e029000ae02900011
:1052a4000400be000080fa00000006001400fa00aa
:1052b4004047980031079800420798005307980028
:1052c4006407980075079800060f9800170f980058
:1052d4004e019000de0190006e009000fe009000f0
:1052e40013ec07000002be00048fbe001e0278000b
:1052f4004422dd00945f88006e029000fe0290005c
:1053040052cd2d00230320000400be0008ec07004a
:105314000002be001e1f12001e971a000082eb003e
:105324008082eb001e0f42005e974a001e03be00ff
:105334001400200005002000840f5300858f5b00bb
:1053440003003e002400200005002000048fbe005e
:10535400f4ff2f00050020001e03be00840f53003d
:10536400858f5b0003003600240020000500200028
:10537400048fbe004e429000e04f52000300320002
:105384004e429000e14f520004003a00be029000e9
:10539400351088001e027800241088000080fa006e
:1053a400000006000600fa00404798000002eb00e7
:1053b400140798004e429000e04f52000300320060
:1053c4004e429000e14f520013003a000002eb00fd
:1053d400040f78000b0037001e0fe800945f800074
:1053e4009e027800848f52000600360004102000cc
:1053f40014079800845f80000402e800845f88003a
:105404000500370045108000040024000482620077
:10541400e00f5200f0ff3a001e02900004007800f2
:105424000080fa00000006000600fa0040479800d9
:105434000002eb00140798004e429000e04f520027
:10544400030032004e429000e14f520013003a0034
:105454000602a8000002eb00040f78000b003700de
:105464001e0fe800945f80009e027800848f520033
:10547400060036000420200014079800845f800092
:105484000402e800845f88000400370034108000c0
:1054940061026200e00f5200f1ff3a001e02900028
:1054a400040078000080fa00000006000600fa00fc
:1054b400404798000002eb00140798004e42900009
:1054c400e04f5200030032004e429000e14f520080
:1054d40013003a000622a8000002eb00040f780033
:1054e4000b0037001e0fe800945f80009e027800d6
:1054f400848f5200060036000440200014079800f0
:10550400845f80000402e800845f880004003700a0
:105514003410800062026200e00f5200f1ff3a0092
:105524001e029000040078000080fa0000000600cb
:105534000600fa0040479800514798000002eb002b
:10554400140798005e429000e04f520003003200be
:105554005e429000e14f520028003a004e42900013
:105564000482fb00141088000002eb00040f780092
:105574000c0037001e0fe800945f80009e02780044
:10558400848f52000700360004802000140798001e
:10559400845f80000402e800845f8800000000004b
:1055a40011003700451080000400240004826200ca
:1055b400e00f5200efff32000b0037001e0fe8002f
:1055c400945f80009e027800848f520006003600ab
:1055d4000480200014079800845f80000402e8001f
:1055e400845f880005003700451080000400240013
:1055f40004826200e00f5200f0ff3a001e029000a5
:10560400040078000080fa00000006000600fa009a
:10561400404798000002eb00140798004e429000a7
:10562400e04f5200030032004e429000e14f52001e
:105634002b003a000662a8000002eb00040f780079
:105644000c0037001e0fe800945f80009e02780073
:10565400848f5200070036000400210014079800cc
:10566400845f80000402e800845f8800000000007a
:10567400100037003410800068026200e00f52000e
:10568400f0ff3a000b0037001e0fe800945f800023
:105694009e027800848f5200060036000400210028
:1056a40014079800845f80000402e800845f880087
:1056b400040037004410800062026200e00f5200d0
:1056c400f1ff32001e029000e00f520004003a0085
:1056d40005108000f40f2000048262001407980073
:1056e4001e029000040078000080fa00000006000a
:1056f4000600fa00404798000002eb0014079800e7
:105704004e429000e04f5200030032004e4290009f
:10571400e14f520013003a000642a8000002eb00d9
:10572400040f78000b0037001e0fe800945f800020
:105734009e027800848f5200060036000400220086
:1057440014079800845f80000402e800845f8800e6
:10575400040037003410800064026200e00f52003d
:10576400f1ff3a001e029000040078000080fa0065
:10577400000006000600fa00404798000002eb0013
:10578400040f78000002eb00140798004e429000ca
:10579400e04f5200030032004e429000e14f5200ad
:1057a40012003a0006a2a9000682a8000b003700e6
:1057b4001e0fe800945f80009e027800848f5200e0
:1057c400060036000400240014079800845f80005b
:1057d4000402e800845f880004003700341080006d
:1057e40070026200e00f5200f1ff3a001e029000c6
:1057f400040078000080fa00000006000600fa00a9
:10580400404798000002eb00040f78000002eb0010
:10581400140798004e429000e04f520003003200fb
:105824004e429000e14f520012003a0006a2a80036
:105834000682a8000b0037001e0fe800945f80006a
:105844009e027800848f520006003600040028006f
:1058540014079800845f80000402e800845f8800d5
:10586400040037003410800070026200e00f520020
:10587400f1ff3a001e029000040078000080fa0054
:105884000000060010019000900078000100510013
:105894000000e900f000b2000000060010019000d2
:1058a4009000780002805000f000b2000000060072
:1058b4001170a6001a003700e40140009309e800c3
:1058c400900190001001e800f200b2000310e10022
:1058d40010003200100178006a11b800e80140009d
:1058e400828141006e815000921978006601410066
:1058f400b2197800b2197800b2197800b219780098
:105904001001e800f200b20002087800e60140004d
:105914009309e900e60140009309e8001170a10031
:10592400000006001170a600090037006e815000c7
:105934001218780066014100321878003218780095
:1059440032187800321878001170a100080037006e
:10595400827f2100021878000200200002187800db
:105964000218780002187800021878003100370015
:1059740000000600e40140009309e8009001900053
:105984001001e800f200b2000310e1000e00320042
:10599400100178006a11b800e801400082814100da
:1059a400b1197800b1197800b1197800b1197800eb
:1059b400b11978001001e800f200b2000208780082
:1059c400e60140009309e900e60140009309e8007c
:1059d4000000060010019000900178000310e1001f
:1059e40008003a00837f2100831878000300200018
:1059f4008318780083187800831878008318780057
:105a04000c0037006a11b800680141000001410030
:105a1400b2187800b2187800b2187800b21878007a
:105a2400b2187800100190000201e800f200b20000
:105a340012009800000006001130a7001300370080
:105a440010019000900178000310e1000f00320073
:105a54006a11b8006801410000014100ee81500064
:105a6400b2097800e6814100b2197800b2197800d1
:105a7400b2197800b21978001130a000100190001a
:105a84000201e800f200b2001200980000000600d3
:105a94001130a1006e815000300978006601410088
:105aa40030197800301978003019780030197800ee
:105ab4001130a000000006000018eb000018eb00f5
